{
  "contractName": "Remittance",
  "abi": [
    {
      "inputs": [
        {
          "internalType": "uint256",
          "name": "_min_duration",
          "type": "uint256"
        },
        {
          "internalType": "uint256",
          "name": "_max_duration",
          "type": "uint256"
        },
        {
          "internalType": "uint256",
          "name": "_ownerFee",
          "type": "uint256"
        }
      ],
      "stateMutability": "nonpayable",
      "type": "constructor"
    },
    {
      "anonymous": false,
      "inputs": [
        {
          "indexed": true,
          "internalType": "address",
          "name": "sender",
          "type": "address"
        },
        {
          "indexed": false,
          "internalType": "uint256",
          "name": "amount",
          "type": "uint256"
        },
        {
          "indexed": false,
          "internalType": "address",
          "name": "exchanger",
          "type": "address"
        },
        {
          "indexed": false,
          "internalType": "uint256",
          "name": "expirationBlock",
          "type": "uint256"
        },
        {
          "indexed": false,
          "internalType": "bytes32",
          "name": "publicKey",
          "type": "bytes32"
        }
      ],
      "name": "KeyLog",
      "type": "event"
    },
    {
      "anonymous": false,
      "inputs": [
        {
          "indexed": false,
          "internalType": "address",
          "name": "sender",
          "type": "address"
        },
        {
          "indexed": false,
          "internalType": "address",
          "name": "oldOwner",
          "type": "address"
        },
        {
          "indexed": false,
          "internalType": "address",
          "name": "newOwner",
          "type": "address"
        }
      ],
      "name": "LogNewOwner",
      "type": "event"
    },
    {
      "anonymous": false,
      "inputs": [
        {
          "indexed": false,
          "internalType": "address",
          "name": "sender",
          "type": "address"
        },
        {
          "indexed": false,
          "internalType": "bool",
          "name": "switchSetting",
          "type": "bool"
        }
      ],
      "name": "LogRunSwitch",
      "type": "event"
    },
    {
      "anonymous": false,
      "inputs": [
        {
          "indexed": false,
          "internalType": "address",
          "name": "who",
          "type": "address"
        },
        {
          "indexed": false,
          "internalType": "uint256",
          "name": "amount",
          "type": "uint256"
        },
        {
          "indexed": false,
          "internalType": "bytes32",
          "name": "publicKey",
          "type": "bytes32"
        }
      ],
      "name": "WithdrawAmountLog",
      "type": "event"
    },
    {
      "anonymous": false,
      "inputs": [
        {
          "indexed": false,
          "internalType": "address",
          "name": "owner",
          "type": "address"
        },
        {
          "indexed": false,
          "internalType": "uint256",
          "name": "amount",
          "type": "uint256"
        }
      ],
      "name": "WithdrawOwnerLog",
      "type": "event"
    },
    {
      "inputs": [
        {
          "internalType": "address",
          "name": "newOwner",
          "type": "address"
        }
      ],
      "name": "changeOwner",
      "outputs": [
        {
          "internalType": "bool",
          "name": "",
          "type": "bool"
        }
      ],
      "stateMutability": "nonpayable",
      "type": "function"
    },
    {
      "inputs": [
        {
          "internalType": "bytes32",
          "name": "",
          "type": "bytes32"
        }
      ],
      "name": "myKeyData",
      "outputs": [
        {
          "internalType": "address",
          "name": "sender",
          "type": "address"
        },
        {
          "internalType": "address",
          "name": "thisAddress",
          "type": "address"
        },
        {
          "internalType": "address",
          "name": "exchangerAddress",
          "type": "address"
        },
        {
          "internalType": "uint256",
          "name": "amount",
          "type": "uint256"
        },
        {
          "internalType": "uint256",
          "name": "expirationBlock",
          "type": "uint256"
        },
        {
          "internalType": "uint256",
          "name": "fee",
          "type": "uint256"
        }
      ],
      "stateMutability": "view",
      "type": "function"
    },
    {
      "inputs": [],
      "name": "owner",
      "outputs": [
        {
          "internalType": "address",
          "name": "",
          "type": "address"
        }
      ],
      "stateMutability": "view",
      "type": "function"
    },
    {
      "inputs": [],
      "name": "ownerFund",
      "outputs": [
        {
          "internalType": "uint256",
          "name": "",
          "type": "uint256"
        }
      ],
      "stateMutability": "view",
      "type": "function"
    },
    {
      "inputs": [
        {
          "internalType": "bool",
          "name": "onOff",
          "type": "bool"
        }
      ],
      "name": "runSwitch",
      "outputs": [
        {
          "internalType": "bool",
          "name": "",
          "type": "bool"
        }
      ],
      "stateMutability": "nonpayable",
      "type": "function"
    },
    {
      "inputs": [],
      "name": "running",
      "outputs": [
        {
          "internalType": "bool",
          "name": "",
          "type": "bool"
        }
      ],
      "stateMutability": "view",
      "type": "function"
    },
    {
      "inputs": [
        {
          "internalType": "address",
          "name": "_exchangerAddress",
          "type": "address"
        },
        {
          "internalType": "string",
          "name": "_privateKeyBeneficiary",
          "type": "string"
        },
        {
          "internalType": "string",
          "name": "_privateKeyExchanger",
          "type": "string"
        },
        {
          "internalType": "uint256",
          "name": "_duration",
          "type": "uint256"
        }
      ],
      "name": "sendFundAndGenerateKey",
      "outputs": [
        {
          "internalType": "bytes32",
          "name": "",
          "type": "bytes32"
        }
      ],
      "stateMutability": "payable",
      "type": "function"
    },
    {
      "inputs": [
        {
          "internalType": "address",
          "name": "_sender",
          "type": "address"
        },
        {
          "internalType": "address",
          "name": "_exchangerAddress",
          "type": "address"
        },
        {
          "internalType": "string",
          "name": "_privateKeyBeneficiary",
          "type": "string"
        },
        {
          "internalType": "string",
          "name": "_privateKeyExchanger",
          "type": "string"
        }
      ],
      "name": "checkKeysAndWithdrawAmount",
      "outputs": [
        {
          "internalType": "bool",
          "name": "",
          "type": "bool"
        }
      ],
      "stateMutability": "nonpayable",
      "type": "function"
    },
    {
      "inputs": [
        {
          "internalType": "uint256",
          "name": "_min",
          "type": "uint256"
        },
        {
          "internalType": "uint256",
          "name": "_max",
          "type": "uint256"
        }
      ],
      "name": "changeDurationInterval",
      "outputs": [
        {
          "internalType": "bool",
          "name": "",
          "type": "bool"
        }
      ],
      "stateMutability": "nonpayable",
      "type": "function"
    },
    {
      "inputs": [
        {
          "internalType": "uint256",
          "name": "_ownerFee",
          "type": "uint256"
        }
      ],
      "name": "setOwnerFee",
      "outputs": [
        {
          "internalType": "bool",
          "name": "",
          "type": "bool"
        }
      ],
      "stateMutability": "nonpayable",
      "type": "function"
    },
    {
      "inputs": [],
      "name": "withdrawOwnerFees",
      "outputs": [
        {
          "internalType": "bool",
          "name": "",
          "type": "bool"
        }
      ],
      "stateMutability": "nonpayable",
      "type": "function"
    }
  ],
  "bytecode": "0x60806040526000600260016101000a81548160ff02191690831515021790555034801561002b57600080fd5b50604051611d45380380611d458339818101604052606081101561004e57600080fd5b81019080805190602001909291908051906020019092919080519060200190929190505050336000806101000a81548173ffffffffffffffffffffffffffffffffffffffff021916908373ffffffffffffffffffffffffffffffffffffffff1602179055506001600260006101000a81548160ff021916908315150217905550826003819055508160048190555080600681905550505050611c50806100f56000396000f3fe60806040526004361061009c5760003560e01c80635bde1596116100645780635bde1596146103d65780638cc5bae9146104335780638da5cb5b146105ea578063a6f9dae114610641578063d85bd526146106aa578063fbf0ade1146106d95761009c565b80630a9ef34c146100a157806327534799146100d05780632dd970581461026057806336536da4146102b55780633e1e9ce7146103ab575b600080fd5b3480156100ad57600080fd5b506100b661072c565b604051808215151515815260200191505060405180910390f35b61024a600480360360808110156100e657600080fd5b81019080803573ffffffffffffffffffffffffffffffffffffffff1690602001909291908035906020019064010000000081111561012357600080fd5b82018360208201111561013557600080fd5b8035906020019184600183028401116401000000008311171561015757600080fd5b91908080601f016020809104026020016040519081016040528093929190818152602001838380828437600081840152601f19601f820116905080830192505050505050509192919290803590602001906401000000008111156101ba57600080fd5b8201836020820111156101cc57600080fd5b803590602001918460018302840111640100000000831117156101ee57600080fd5b91908080601f016020809104026020016040519081016040528093929190818152602001838380828437600081840152601f19601f82011690508083019250505050505050919291929080359060200190929190505050610927565b6040518082815260200191505060405180910390f35b34801561026c57600080fd5b5061029b6004803603602081101561028357600080fd5b81019080803515159060200190929190505050610e1f565b604051808215151515815260200191505060405180910390f35b3480156102c157600080fd5b506102ee600480360360208110156102d857600080fd5b8101908080359060200190929190505050610f0c565b604051808773ffffffffffffffffffffffffffffffffffffffff1673ffffffffffffffffffffffffffffffffffffffff1681526020018673ffffffffffffffffffffffffffffffffffffffff1673ffffffffffffffffffffffffffffffffffffffff1681526020018573ffffffffffffffffffffffffffffffffffffffff1673ffffffffffffffffffffffffffffffffffffffff168152602001848152602001838152602001828152602001965050505050505060405180910390f35b3480156103b757600080fd5b506103c0610fa8565b6040518082815260200191505060405180910390f35b3480156103e257600080fd5b50610419600480360360408110156103f957600080fd5b810190808035906020019092919080359060200190929190505050610fae565b604051808215151515815260200191505060405180910390f35b34801561043f57600080fd5b506105d06004803603608081101561045657600080fd5b81019080803573ffffffffffffffffffffffffffffffffffffffff169060200190929190803573ffffffffffffffffffffffffffffffffffffffff169060200190929190803590602001906401000000008111156104b357600080fd5b8201836020820111156104c557600080fd5b803590602001918460018302840111640100000000831117156104e757600080fd5b91908080601f016020809104026020016040519081016040528093929190818152602001838380828437600081840152601f19601f8201169050808301925050505050505091929192908035906020019064010000000081111561054a57600080fd5b82018360208201111561055c57600080fd5b8035906020019184600183028401116401000000008311171561057e57600080fd5b91908080601f016020809104026020016040519081016040528093929190818152602001838380828437600081840152601f19601f820116905080830192505050505050509192919290505050611041565b604051808215151515815260200191505060405180910390f35b3480156105f657600080fd5b506105ff611895565b604051808273ffffffffffffffffffffffffffffffffffffffff1673ffffffffffffffffffffffffffffffffffffffff16815260200191505060405180910390f35b34801561064d57600080fd5b506106906004803603602081101561066457600080fd5b81019080803573ffffffffffffffffffffffffffffffffffffffff1690602001909291905050506118ba565b604051808215151515815260200191505060405180910390f35b3480156106b657600080fd5b506106bf611a4a565b604051808215151515815260200191505060405180910390f35b3480156106e557600080fd5b50610712600480360360208110156106fc57600080fd5b8101908080359060200190929190505050611a5d565b604051808215151515815260200191505060405180910390f35b60008060009054906101000a900473ffffffffffffffffffffffffffffffffffffffff1673ffffffffffffffffffffffffffffffffffffffff163373ffffffffffffffffffffffffffffffffffffffff161461078757600080fd5b600260019054906101000a900460ff161561080a576040517f08c379a00000000000000000000000000000000000000000000000000000000081526004018080602001828103825260178152602001807f5265656e7472616e742063616c6c20646574656374656400000000000000000081525060200191505060405180910390fd5b6001600260016101000a81548160ff02191690831515021790555060003373ffffffffffffffffffffffffffffffffffffffff1660015460405180600001905060006040518083038185875af1925050503d8060008114610887576040519150601f19603f3d011682016040523d82523d6000602084013e61088c565b606091505b505090507f70ee09b5688705ff92184aa4b0da099bddbd6c2136bc75c04c0690a483687f2933600154604051808373ffffffffffffffffffffffffffffffffffffffff1673ffffffffffffffffffffffffffffffffffffffff1681526020018281526020019250505060405180910390a160006001819055506000600260016101000a81548160ff0219169083151502179055508091505090565b6000600260009054906101000a900460ff1661094257600080fd5b600073ffffffffffffffffffffffffffffffffffffffff168573ffffffffffffffffffffffffffffffffffffffff16141561097c57600080fd5b600073ffffffffffffffffffffffffffffffffffffffff163373ffffffffffffffffffffffffffffffffffffffff1614156109b657600080fd5b600034116109c357600080fd5b600354821180156109d5575060045482105b610a2a576040517f08c379a0000000000000000000000000000000000000000000000000000000008152600401808060200182810382526023815260200180611bb56023913960400191505060405180910390fd5b600a845111610a84576040517f08c379a0000000000000000000000000000000000000000000000000000000008152600401808060200182810382526045815260200180611b706045913960600191505060405180910390fd5b600a845111610ade576040517f08c379a0000000000000000000000000000000000000000000000000000000008152600401808060200182810382526043815260200180611bd86043913960600191505060405180910390fd5b600033868686604051602001808573ffffffffffffffffffffffffffffffffffffffff1673ffffffffffffffffffffffffffffffffffffffff1660601b81526014018473ffffffffffffffffffffffffffffffffffffffff1673ffffffffffffffffffffffffffffffffffffffff1660601b815260140183805190602001908083835b60208310610b845780518252602082019150602081019050602083039250610b61565b6001836020036101000a03801982511681845116808217855250505050505090500182805190602001908083835b60208310610bd55780518252602082019150602081019050602083039250610bb2565b6001836020036101000a038019825116818451168082178552505050505050905001945050505050604051602081830303815290604052805190602001209050336008600083815260200190815260200160002060000160006101000a81548173ffffffffffffffffffffffffffffffffffffffff021916908373ffffffffffffffffffffffffffffffffffffffff160217905550306008600083815260200190815260200160002060010160006101000a81548173ffffffffffffffffffffffffffffffffffffffff021916908373ffffffffffffffffffffffffffffffffffffffff160217905550856008600083815260200190815260200160002060020160006101000a81548173ffffffffffffffffffffffffffffffffffffffff021916908373ffffffffffffffffffffffffffffffffffffffff16021790555060065434036008600083815260200190815260200160002060030181905550824301600860008381526020019081526020016000206004018190555060065460086000838152602001908152602001600020600501819055506006546001600082825401925050819055503373ffffffffffffffffffffffffffffffffffffffff167f40afe4ee21981fa79e4445e26f12326264d061eeaad488563a50a214f3614207348886430185604051808581526020018473ffffffffffffffffffffffffffffffffffffffff1673ffffffffffffffffffffffffffffffffffffffff16815260200183815260200182815260200194505050505060405180910390a280915050949350505050565b60008060009054906101000a900473ffffffffffffffffffffffffffffffffffffffff1673ffffffffffffffffffffffffffffffffffffffff163373ffffffffffffffffffffffffffffffffffffffff1614610e7a57600080fd5b81600260006101000a81548160ff0219169083151502179055507fe149139e745b87d23672d6d1bd3f9160008dc717a946188ef8c5155e4ee6b8453383604051808373ffffffffffffffffffffffffffffffffffffffff1673ffffffffffffffffffffffffffffffffffffffff168152602001821515151581526020019250505060405180910390a160019050919050565b60086020528060005260406000206000915090508060000160009054906101000a900473ffffffffffffffffffffffffffffffffffffffff16908060010160009054906101000a900473ffffffffffffffffffffffffffffffffffffffff16908060020160009054906101000a900473ffffffffffffffffffffffffffffffffffffffff16908060030154908060040154908060050154905086565b60015481565b60008060009054906101000a900473ffffffffffffffffffffffffffffffffffffffff1673ffffffffffffffffffffffffffffffffffffffff163373ffffffffffffffffffffffffffffffffffffffff161461100957600080fd5b82821180156110185750600083115b80156110245750600082115b61102d57600080fd5b826003819055508160048190555092915050565b6000600260009054906101000a900460ff1661105c57600080fd5b600085858585604051602001808573ffffffffffffffffffffffffffffffffffffffff1673ffffffffffffffffffffffffffffffffffffffff1660601b81526014018473ffffffffffffffffffffffffffffffffffffffff1673ffffffffffffffffffffffffffffffffffffffff1660601b815260140183805190602001908083835b6020831061110257805182526020820191506020810190506020830392506110df565b6001836020036101000a03801982511681845116808217855250505050505090500182805190602001908083835b602083106111535780518252602082019150602081019050602083039250611130565b6001836020036101000a03801982511681845116808217855250505050505090500194505050505060405160208183030381529060405280519060200120905061119b611ad3565b600860008381526020019081526020016000206040518060c00160405290816000820160009054906101000a900473ffffffffffffffffffffffffffffffffffffffff1673ffffffffffffffffffffffffffffffffffffffff1673ffffffffffffffffffffffffffffffffffffffff1681526020016001820160009054906101000a900473ffffffffffffffffffffffffffffffffffffffff1673ffffffffffffffffffffffffffffffffffffffff1673ffffffffffffffffffffffffffffffffffffffff1681526020016002820160009054906101000a900473ffffffffffffffffffffffffffffffffffffffff1673ffffffffffffffffffffffffffffffffffffffff1673ffffffffffffffffffffffffffffffffffffffff168152602001600382015481526020016004820154815260200160058201548152505090506000816060015111611355576040517f08c379a000000000000000000000000000000000000000000000000000000000815260040180806020018281038252601f8152602001807f416d6f756e742068617320746f2062652067726561746572207468616e20300081525060200191505060405180910390fd5b600073ffffffffffffffffffffffffffffffffffffffff16816000015173ffffffffffffffffffffffffffffffffffffffff1614156113fc576040517f08c379a000000000000000000000000000000000000000000000000000000000815260040180806020018281038252601c8152602001807f53656e64657220416464726573732063616e2774206265206e756c6c0000000081525060200191505060405180910390fd5b600073ffffffffffffffffffffffffffffffffffffffff16816040015173ffffffffffffffffffffffffffffffffffffffff1614156114a3576040517f08c379a000000000000000000000000000000000000000000000000000000000815260040180806020018281038252601f8152602001807f45786368616e67657220416464726573732063616e2774206265206e756c6c0081525060200191505060405180910390fd5b8673ffffffffffffffffffffffffffffffffffffffff16816000015173ffffffffffffffffffffffffffffffffffffffff1614611548576040517f08c379a00000000000000000000000000000000000000000000000000000000081526004018080602001828103825260178152602001807f53656e6465722041646472657373204469736d6174636800000000000000000081525060200191505060405180910390fd5b8573ffffffffffffffffffffffffffffffffffffffff16816040015173ffffffffffffffffffffffffffffffffffffffff16146115ed576040517f08c379a000000000000000000000000000000000000000000000000000000000815260040180806020018281038252601a8152602001807f45786368616e6765722041646472657373204469736d6174636800000000000081525060200191505060405180910390fd5b3373ffffffffffffffffffffffffffffffffffffffff16816040015173ffffffffffffffffffffffffffffffffffffffff1614801561162f5750438160800151115b8061167957503373ffffffffffffffffffffffffffffffffffffffff16816000015173ffffffffffffffffffffffffffffffffffffffff16148015611678575043816080015111155b5b6116ce576040517f08c379a0000000000000000000000000000000000000000000000000000000008152600401808060200182810382526024815260200180611b4c6024913960400191505060405180910390fd5b600260019054906101000a900460ff1615611751576040517f08c379a00000000000000000000000000000000000000000000000000000000081526004018080602001828103825260178152602001807f5265656e7472616e742063616c6c20646574656374656400000000000000000081525060200191505060405180910390fd5b6001600260016101000a81548160ff02191690831515021790555060003373ffffffffffffffffffffffffffffffffffffffff16826060015160405180600001905060006040518083038185875af1925050503d80600081146117d0576040519150601f19603f3d011682016040523d82523d6000602084013e6117d5565b606091505b50509050600060086000858152602001908152602001600020600301819055507f9f88221c96030bf590e017d242b465e31ca3e4601fc73fe8ecc260066c18358233836060015185604051808473ffffffffffffffffffffffffffffffffffffffff1673ffffffffffffffffffffffffffffffffffffffff168152602001838152602001828152602001935050505060405180910390a16000600260016101000a81548160ff021916908315150217905550809350505050949350505050565b6000809054906101000a900473ffffffffffffffffffffffffffffffffffffffff1681565b60008060009054906101000a900473ffffffffffffffffffffffffffffffffffffffff1673ffffffffffffffffffffffffffffffffffffffff163373ffffffffffffffffffffffffffffffffffffffff161461191557600080fd5b7f95a4124b32fadd40e6e63088992a62e3505e61d1683b783d03e575d7c1dfb967336000809054906101000a900473ffffffffffffffffffffffffffffffffffffffff1684604051808473ffffffffffffffffffffffffffffffffffffffff1673ffffffffffffffffffffffffffffffffffffffff1681526020018373ffffffffffffffffffffffffffffffffffffffff1673ffffffffffffffffffffffffffffffffffffffff1681526020018273ffffffffffffffffffffffffffffffffffffffff1673ffffffffffffffffffffffffffffffffffffffff168152602001935050505060405180910390a1816000806101000a81548173ffffffffffffffffffffffffffffffffffffffff021916908373ffffffffffffffffffffffffffffffffffffffff16021790555060019050919050565b600260009054906101000a900460ff1681565b60008060009054906101000a900473ffffffffffffffffffffffffffffffffffffffff1673ffffffffffffffffffffffffffffffffffffffff163373ffffffffffffffffffffffffffffffffffffffff1614611ab857600080fd5b816006541415611ac757600080fd5b81600681905550919050565b6040518060c00160405280600073ffffffffffffffffffffffffffffffffffffffff168152602001600073ffffffffffffffffffffffffffffffffffffffff168152602001600073ffffffffffffffffffffffffffffffffffffffff168152602001600081526020016000815260200160008152509056fe45787069726174696f6e20426c6f636b206f722041646472657373204469736d6174636842656e656669636961727927732050726976617465204b6579206c656e6768742073686f756c642062652067726561746572207468616e20313020636861726163746572734475726174696f6e20646f65736e2774206d617463682074686520696e74657276616c45786368616e67657227732050726976617465204b6579206c656e6768742073686f756c642062652067726561746572207468616e2031302063686172616374657273a2646970667358221220ec465720b7748083289e0d4853c3779041dc843d0d97af88780addd5c7caa28464736f6c634300060a0033",
  "immutableReferences": {},
  "source": "import \"./Stoppable.sol\";\r\nimport \"./SafeMath.sol\";\r\nimport \"./Stoppable.sol\";\r\n\r\n// SPDX-License-Identifier: MIT\r\n\r\npragma solidity 0.6.10;\r\n\r\ncontract Remittance is Stoppable {\r\n\r\n    using SafeMath for uint; //Obsolate from Solidity 0.8.0\r\n\r\n    struct KeyData{\r\n        address sender;\r\n        address thisAddress;\r\n        address exchangerAddress;\r\n        uint    amount;\r\n        uint    expirationBlock;\r\n        uint    fee;\r\n    }\r\n\r\n    bool isLocked = false;\r\n    uint min_duration;\r\n    uint max_duration;\r\n    uint ownerFeePercentage; // Applied to gas cost of this contract\r\n    uint fee;\r\n    uint deployedGasCost;\r\n\r\n    mapping(bytes32 => KeyData) public myKeyData;\r\n\r\n    event KeyLog(address indexed sender, uint amount, address exchanger, uint expirationBlock, bytes32 publicKey);\r\n    event WithdrawAmountLog(address who, uint amount, bytes32 publicKey);\r\n    event WithdrawOwnerLog(address owner, uint amount);\r\n\r\n    constructor (uint _min_duration, uint _max_duration, uint _ownerFee) public {\r\n        min_duration = _min_duration;\r\n        max_duration = _max_duration;\r\n        fee = _ownerFee;\r\n    }\r\n\r\n    function sendFundAndGenerateKey(address _exchangerAddress, string memory _privateKeyBeneficiary, string memory _privateKeyExchanger, uint _duration) public payable onlyIfRunning returns(bytes32){\r\n\r\n        require(_exchangerAddress != address(0x0));\r\n        require(msg.sender != address(0x0));\r\n        require(msg.value > 0);\r\n        require(_duration > min_duration && _duration < max_duration, \"Duration doesn't match the interval\"); \r\n        require(bytes(_privateKeyBeneficiary).length > 10, \"Beneficiary's Private Key lenght should be greater than 10 characters\");\r\n        require(bytes(_privateKeyBeneficiary).length > 10, \"Exchanger's Private Key lenght should be greater than 10 characters\");\r\n\r\n        bytes32 publicKey = keccak256(abi.encodePacked(msg.sender, _exchangerAddress, bytes(_privateKeyBeneficiary), bytes(_privateKeyExchanger)));\r\n\r\n        myKeyData[publicKey].sender = msg.sender;\r\n        myKeyData[publicKey].thisAddress = address(this);\r\n        myKeyData[publicKey].exchangerAddress = _exchangerAddress;\r\n        myKeyData[publicKey].amount = msg.value - fee;\r\n        myKeyData[publicKey].expirationBlock = block.number + _duration;\r\n        myKeyData[publicKey].fee = fee;\r\n        ownerFund += fee;\r\n\r\n        emit KeyLog(msg.sender, msg.value, _exchangerAddress, block.number + _duration, publicKey);\r\n        return publicKey;\r\n    }\r\n \r\n\r\n    function checkKeysAndWithdrawAmount(address _sender, address _exchangerAddress, string memory _privateKeyBeneficiary, string memory _privateKeyExchanger) external onlyIfRunning returns(bool){\r\n\r\n        bytes32 key = keccak256(abi.encodePacked( _sender, _exchangerAddress, _privateKeyBeneficiary, _privateKeyExchanger));\r\n\r\n        KeyData memory keydata = myKeyData[key];\r\n        \r\n        require(keydata.amount > 0, \"Amount has to be greater than 0\");\r\n        require(keydata.sender != address(0x0), \"Sender Address can't be null\");   \r\n        require(keydata.exchangerAddress != address(0x0), \"Exchanger Address can't be null\");                                                                  \r\n        require(keydata.sender == _sender, \"Sender Address Dismatch\");\r\n        require(keydata.exchangerAddress == _exchangerAddress, \"Exchanger Address Dismatch\");                     \r\n        require((keydata.exchangerAddress == msg.sender && keydata.expirationBlock > block.number) || (keydata.sender == msg.sender && keydata.expirationBlock <= block.number), \"Expiration Block or Address Dismatch\");\r\n\r\n        //msg.sender.transfer(keydata.amount);\r\n        require(!isLocked, \"Reentrant call detected\");\r\n        isLocked = true;\r\n        (bool success, ) = msg.sender.call{value : keydata.amount}(\"\");\r\n        myKeyData[key].amount = 0;\r\n        emit WithdrawAmountLog(msg.sender, keydata.amount, key);\r\n        isLocked = false;\r\n        return success;\r\n\r\n    }\r\n\r\n    function changeDurationInterval(uint _min, uint _max) public onlyOwner returns(bool){\r\n        require(_max > _min && _min > 0 && _max > 0);\r\n        min_duration = _min;\r\n        max_duration = _max;\r\n    }\r\n\r\n    function setOwnerFee(uint _ownerFee) public onlyOwner returns(bool){\r\n        require(fee != _ownerFee);\r\n        fee = _ownerFee;\r\n    }\r\n\r\n    function withdrawOwnerFees() public onlyOwner returns(bool){\r\n        require(!isLocked, \"Reentrant call detected\");\r\n        isLocked = true;\r\n        (bool success, ) = msg.sender.call{value : ownerFund}(\"\");\r\n        emit WithdrawOwnerLog(msg.sender, ownerFund);\r\n        ownerFund = 0;\r\n        isLocked = false;\r\n        return success;\r\n    }\r\n }",
  "sourcePath": "/home/vagrant/DAPPS/project2_b9lab/tmp-224957I71lqE6jWXn/box/contracts/Remittance.sol",
  "compiler": {
    "name": "solc",
    "version": "0.6.10+commit.00c0fcaf.Emscripten.clang"
  },
  "schemaVersion": "3.2.0",
  "updatedAt": "2020-12-23T15:26:36.724Z",
  "devdoc": {
    "methods": {}
  },
  "userdoc": {
    "methods": {}
  }
}